{
  "contractName": "Auth",
  "abi": [
    {
      "inputs": [],
      "payable": false,
      "stateMutability": "nonpayable",
      "type": "constructor"
    },
    {
      "anonymous": false,
      "inputs": [],
      "name": "SetTokenEvent",
      "type": "event"
    },
    {
      "constant": true,
      "inputs": [
        {
          "internalType": "address",
          "name": "",
          "type": "address"
        }
      ],
      "name": "token",
      "outputs": [
        {
          "internalType": "uint256",
          "name": "",
          "type": "uint256"
        }
      ],
      "payable": false,
      "stateMutability": "view",
      "type": "function"
    },
    {
      "constant": false,
      "inputs": [],
      "name": "setToken",
      "outputs": [],
      "payable": false,
      "stateMutability": "nonpayable",
      "type": "function"
    }
  ],
  "bytecode": "0x60806040526212d68760025534801561001757600080fd5b506102e7806100276000396000f3fe608060405234801561001057600080fd5b50600436106100365760003560e01c80636d46a1db1461003b578063ed9cf58c14610093575b600080fd5b61007d6004803603602081101561005157600080fd5b81019080803573ffffffffffffffffffffffffffffffffffffffff16906020019092919050505061009d565b6040518082815260200191505060405180910390f35b61009b6100b5565b005b60016020528060005260406000206000915090505481565b6000803373ffffffffffffffffffffffffffffffffffffffff1673ffffffffffffffffffffffffffffffffffffffff16815260200190815260200160002060009054906101000a900460ff1615610174576040517f08c379a000000000000000000000000000000000000000000000000000000000815260040180806020018281038252601a8152602001807f7573657220616c72656164792061757468656e7469636174656400000000000081525060200191505060405180910390fd5b60016000803373ffffffffffffffffffffffffffffffffffffffff1673ffffffffffffffffffffffffffffffffffffffff16815260200190815260200160002060006101000a81548160ff021916908315150217905550444233604051602001808481526020018381526020018273ffffffffffffffffffffffffffffffffffffffff1673ffffffffffffffffffffffffffffffffffffffff1660601b815260140193505050506040516020818303038152906040528051906020012060001c60025401600281905550600254600160003373ffffffffffffffffffffffffffffffffffffffff1673ffffffffffffffffffffffffffffffffffffffff168152602001908152602001600020819055507f5cdc4d864d23494e331a06188a2588f5e0e016dfe7be446fef248c03c99ec5d360405160405180910390a156fea265627a7a723158209d8159f30ceb84b2119254c26b2db838725a1d06559ed02080da3ec70898355364736f6c63430005100032",
  "source": "pragma solidity ^0.5.0;\r\n\r\ncontract Auth {\r\n\r\n    mapping (address => bool) private set;\r\n\r\n    mapping (address => uint) public token;\r\n\r\n    event SetTokenEvent();\r\n\r\n    uint private num = 1234567;\r\n\r\n    constructor () public {   \r\n    }\r\n\r\n    function setToken() public {\r\n        require(!set[msg.sender], \"user already authenticated\");\r\n        set[msg.sender] = true;\r\n        num = num + uint(keccak256(abi.encodePacked(block.difficulty, now, msg.sender)));\r\n        token[msg.sender] = num;\r\n        emit SetTokenEvent();\r\n    }\r\n\r\n    \r\n\r\n}",
  "sourcePath": "C:/Users/HP/Desktop/auth/contract/contracts/Auth.sol",
  "compiler": {
    "name": "solc",
    "version": "0.5.16+commit.9c3226ce.Emscripten.clang"
  },
  "schemaVersion": "3.0.22",
  "updatedAt": "2021-01-22T10:12:53.345Z",
  "networkType": "ethereum",
  "devdoc": {
    "methods": {}
  },
  "userdoc": {
    "methods": {}
  }
}